:020000020000FC
:10000000F3E0E0E000E3019307E3019300E30193F1
:100010000027008311E20FEF1EBF0DBF1FEF1093EB
:10002000240010930A0112E00EEF1F930F9312E0C9
:1000300000E01F930F935ED00F910F910F910F91DE
:1000400023E012E000E01F930F9304D02A952223AF
:10005000C1F7FFCFDEB7CDB7EC81FD810191002361
:1000600049F00F93FF93EF9307D07FD0EF91FF916B
:100070000F91F4CF7AD008950F3F21F476D075D048
:1000800031E019C00295102F0F70302F402F06E07D
:10009000443021F0110F43954430E1F7512F50784F
:1000A000503829F40CD061D01FD05FD004C007D0E5
:1000B00060D01AD05AD0110F3A9581F70895602F69
:1000C00070E080E090E072301CF096959695906814
:1000D000880F880F826073956A956623A1F78093D5
:1000E000250090930B01089570E070930B017093BD
:1000F00025000895DEB7CDB7AC81BD81EE81FF81CB
:100100000591003089F0BF93AF93DF93CF93FF93B6
:10011000EF930F930AD00F91EF91FF91CF91DF9161
:10012000AF91BF910D92ECCF0895DEB7CDB7ECE95A
:10013000F1E00C8120E030E0003211F42FEF10C02C
:100140001591011759F41591103051F0330F1E32EB
:1001500019F031602395F7CF2395F5CF3796F0CF7F
:100160003295322B3295032E089505D004D003D05A
:10017000089501D0089501D008950F931F932F93F0
:1001800008E00A9539F01FEF1A95D9F32FEF2A9559
:10019000D9F3FDCF2F911F910F910895412E2D007E
:1001A00000000000422D2E2E2E000000432D2E2D8B
:1001B0002E000000442D2E2E00000000452E0000D1
:1001C00000000000462E2E2D2E000000472D2D2E63
:1001D00000000000482E2E2E2E000000492E2E007A
:1001E000000000004A2E2D2D2D0000004B2D2E2D3D
:1001F0002E0000004C2E2D2E2E0000004D2D2D0027
:10020000000000004E2D2E00000000004F2D2D2D6F
:1002100000000000502E2D2D2E000000512D2D2EFF
:100220002D000000522E2D2E00000000532E2E2EE9
:1002300000000000542D000000000000552E2E2D5F
:1002400000000000562E2E2E2D000000572E2D2DC2
:1002500000000000582D2E2E2D000000592D2E2DAF
:100260002D0000005A2D2D2E2E0000000000000051
:1002700000000000412041204100534F5300412025
:10028000424F5800444149525920515545454E006E
:10029000544845205348415045204F46205741542B
:1002A000455200004441524B45535420484F55524B
:1002B000000054485245452042494C4C424F41525F
:1002C0004453204F55545349444520454242494EDA
:1002D00047204D4953534F55524900004F48204342
:1002E000414E414441204F5552204F574E20414EE0
:1002F00044204E4154495645204C414E440049202B
:1003000043414E2048415A20434845455A425552A0
:10031000474552005748415420474F4420484154D4
:0A032000482057524F55474854003B
:00000001FF
