:100000000C9472000C9493000C9493000C94930045
:100010000C9493000C9493000C9493000C94930014
:100020000C9493000C9493000C9493000C94930004
:100030000C9493000C9493000C9493000C949300F4
:100040000C9493000C9495000C9493000C949300E2
:100050000C9493000C9493000C9493000C949300D4
:100060000C9493000C9493000C9493000C949300C4
:100070000C9493000C9493000C9493000C949300B4
:100080000C94BA000C9493000C9493000C9493007D
:100090000C9493000C9493000C9493000C94930094
:1000A0000C9493000C9493000C9493000C94930084
:1000B0000C9493000C9493000C9493000C94930074
:1000C0000C9493000C9493000C9493000C94930064
:1000D0000C9493000C9493000C9493000C94930054
:1000E0000C94930011241FBECFEFD1E2DEBFCDBF31
:1000F00000E00CBF13E0A0E0B2E0ECE3F2E100E0CE
:100100000BBF02C007900D92A234B107D9F713E0DC
:10011000A2E4B3E001C01D92AA34B107E1F70E9446
:10012000A5020C941C090C9400001F920F920FB6AC
:100130000F9211248F939F93AF93BF9380914203AB
:1001400090914303A0914403B09145030196A11DF2
:10015000B11D8093420390934303A0934403B09353
:100160004503BF91AF919F918F910F900FBE0F905C
:100170001F9018951F920F920FB60F9211248F9314
:100180009F93AF93BF938091460390914703A091B3
:100190004803B09149030596A11DB11D8093460304
:1001A00090934703A0934803B0934903BF91AF9145
:1001B0009F918F910F900FBE0F901F901895982FC1
:1001C0008FEF80930A016623C9F4913059F0913082
:1001D00028F0923059F0933069F50CC080910B01F2
:1001E0008F7720C080910B018F7D1CC080910B0107
:1001F000877F18C080910B018D7F14C0913059F01A
:10020000913028F0923059F09330A1F40EC08091D3
:100210000B01806807C080910B01806203C0809150
:100220000B01886080930B01089580910B0182601F
:1002300080930B0108952F923F924F925F926F929D
:100240007F928F929F92AF92BF92CF92DF92EF9266
:10025000FF920F931F93DF93CF93CDB7DEB7E9974C
:100260000FB6F894DEBF0FBECDBFDE011196E6E2F9
:10027000F2E083E101900D928150E1F7DE015496A6
:10028000E0E0F2E086E201900D928150E1F73E015C
:100290000894611C711C94E1892E912C8C0E9D1E7A
:1002A00080E9282E81E0382E240180E060E00E9461
:1002B000DF0081E060E00E94DF0082E060E00E94F9
:1002C000DF0083E060E00E94DF00F3018081C82E40
:1002D000DD2400E010E0FF24F394C601002E02C0EC
:1002E000959587950A94E2F780FF04C0802F61E01E
:1002F0000E94DF000F5F1F4FF394F5E0FF1669F7D0
:10030000F40160817181882777FD8095982F0E9484
:100310003E065B016C0120E030E04AE755E40E94B4
:10032000B4047B018C0120E030E040E85FE30E94F0
:100330000E0688231CF461E070E022C0C801B701FA
:1003400020E03FEF4FE757E40E94AE051816A4F4F3
:10035000C601B50120E030E040E251E40E94B4045F
:100360000E94DE0205C0C1010197F1F761507040A3
:1003700061157105C1F707C0C801B7010E94DE020F
:10038000CB010197F1F70894611C711C82E090E0A9
:10039000880E991E6414750409F087CFE9960FB68C
:1003A000F894DEBF0FBECDBFCF91DF911F910F91AB
:1003B000FF90EF90DF90CF90BF90AF909F908F9085
:1003C0007F906F905F904F903F902F900895DF92B5
:1003D000EF92FF920F931F93D82ECB01BA0120E02A
:1003E00030E04AEF53E40E94B4040E949C067B0173
:1003F0000027F7FC0095102F809142039091430352
:10040000A0914403B09145038E159F05A007B10745
:10041000C4F08091420390914303A0914403B091B2
:100420004503845F9140A040B0401CF48D2D60E0F6
:100430000AC0109242031092430310924403109298
:1004400045038D2D61E00E94DF00D6CFFF920F9310
:100450001F93CF93DF93F82EC4EFD1E000E010E0BC
:10046000209142033091430340914403509145034E
:10047000CE01AA2797FDA095BA2F281739074A075A
:100480005B07C4F08091420390914303A091440321
:10049000B0914503845F9140A040B0401CF48F2D83
:1004A00060E00AC01092420310924303109244038A
:1004B000109245038F2D61E00E94DF00809146037A
:1004C00090914703A0914803B09149030697A10575
:1004D000B105B4F081E0C43FD80791F001301105B7
:1004E00079F4219610924603109247031092480324
:1004F0001092490321E0C43FD20709F0B1CFAECF3B
:100500008091460390914703A0914803B09149031D
:100510000697A105B1050CF4A3CF1C161D060CF01F
:100520009FCF0115110509F09BCF2197109246032B
:10053000109247031092480310924903209709F044
:100540008FCF01E010E08CCF0895F89482E090E026
:10055000909389008093880010928000E1E8F0E099
:100560001082808188608083808182608083808126
:1005700081608083EFE6F0E080818260808384EC9C
:1005800099E0909399008093980010929000E1E98F
:10059000F0E0108280818860808380818260808327
:1005A000E1E7F0E080818260808378940E941B0103
:1005B00083E00E94260280E090E00895EF92FF928F
:1005C0000F931F937B018C0120E030E040E05FE45B
:1005D0000E94DE0588238CF0C801B70120E030E0DE
:1005E00040E05FE40E9456040E949C069B01AC011F
:1005F000205030404040504806C0C801B7010E941A
:100600009C069B01AC01B901CA011F910F91FF909B
:10061000EF900895A0E0B0E0E0E1F3E00C94E5088D
:10062000DC012B01FA019C91923008F439C1EB01F5
:100630008881823008F433C1943069F4843009F041
:100640002FC111969C9111978981981709F428C19F
:10065000A9E3B2E025C1843009F421C18230A9F4B4
:10066000923009F01DC19A01AD0188E0EA010990BC
:10067000AE01E90109929E018150C1F7E201898131
:1006800011969C918923818308C1923009F407C196
:1006900012962D903C901397EB018A819B811496C2
:1006A000AD90BD90CD90DC901797EC80FD800E81D1
:1006B0001F819101281B390BB90137FF04C0662740
:1006C0007727621B730B603271050CF061C0121644
:1006D00013066CF537014801062E04C096948794E2
:1006E000779467940A94D2F721E030E040E050E03C
:1006F00004C0220F331F441F551F6A95D2F72150A3
:100700003040404050402E213F21402351232115AD
:1007100031054105510521F021E030E040E050E095
:1007200079018A01E628F728082919293CC0232BDA
:10073000D1F1260E371E35014601062E04C09694CF
:100740008794779467940A94D2F721E030E040E0F0
:1007500050E004C0220F331F441F551F6A95D2F783
:1007600021503040404050402A213B214C215D2106
:10077000211531054105510521F021E030E040E02F
:1007800050E059016A01A628B728C828D9280BC00B
:10079000821593052CF01C01AA24BB24650103C01B
:1007A000EE24FF24870111969C91D20111968C9121
:1007B000981709F445C0992339F0A80197012A191F
:1007C0003B094C095D0906C0A60195012E193F0998
:1007D000400B510B57FD08C01182338222822483C3
:1007E0003583468357831DC081E081833382228213
:1007F00088279927DC01821B930BA40BB50B8483FC
:100800009583A683B7830DC0220F331F441F551F46
:100810002483358346835783828193810197938311
:1008200082832481358146815781DA01C90101978C
:10083000A109B1098F5F9F4FAF4FBF4328F30BC092
:10084000918333822282EA0CFB1C0C1D1D1DE48265
:10085000F5820683178383E0808324813581468176
:10086000578157FF1AC0C901AA2797FDA095BA2F33
:1008700081709070A070B070569547953795279508
:10088000822B932BA42BB52B84839583A683B783CC
:1008900082819381019693838283DF0101C0D2011B
:1008A000CD01CDB7DEB7E2E10C940109A0E2B0E0E2
:1008B000ECE5F4E00C94F10869837A838B839C83E4
:1008C0002D833E834F835887E9E0EE2EF12CEC0E0A
:1008D000FD1ECE010196B7010E9414088E010F5E25
:1008E0001F4FCE010596B8010E9414088A8991E035
:1008F00089278A8BC701B801AE01475E5F4F0E940E
:100900000A030E943F07A096E6E00C940D09A0E2BE
:10091000B0E0EDE8F4E00C94F10869837A838B830E
:100920009C832D833E834F835887F9E0EF2EF12C73
:10093000EC0EFD1ECE010196B7010E9414088E0137
:100940000F5E1F4FCE010596B8010E941408C70123
:10095000B801AE01475E5F4F0E940A030E943F0745
:10096000A096E6E00C940D09A0E2B0E0EAEBF4E01A
:100970000C94E50869837A838B839C832D833E8363
:100980004F835887CE010196BE01675F7F4F0E945B
:100990001408CE010596BE016F5E7F4F0E941408B9
:1009A0009985923088F089898230C8F0943019F4A2
:1009B000823051F404C0843029F4923081F489E308
:1009C00092E0C6C0923049F420E09A858A89981353
:1009D00021E02A87CE010996BBC0823049F420E08D
:1009E0009A858A89981321E02A8BCE014196B0C05E
:1009F0002D843E844F8458886D887E888F88988C9B
:100A0000EE24FF248701AA24BB24650140E050E0C6
:100A100060E070E0E0E0F0E0C10181709070892B4F
:100A2000E9F0E60CF71C081D191D9A01AB012A0D0F
:100A30003B1D4C1D5D1D80E090E0A0E0B0E0E614A1
:100A4000F7040805190520F481E090E0A0E0B0E08B
:100A5000BA01A901480F591F6A1F7B1FAA0CBB1CB2
:100A6000CC1CDD1C97FE08C081E090E0A0E0B0E067
:100A7000A82AB92ACA2ADB2A3196E032F10549F0C0
:100A8000660C771C881C991C5694479437942794BD
:100A9000C3CFFA85EA892B893C898B859C85280FF1
:100AA000391F2E5F3F4F17C0CA0181709070892B8C
:100AB00061F016950795F794E79480E090E0A0E048
:100AC000B0E8E82AF92A0A2B1B2B769567955795EB
:100AD00047952F5F3F4F77FDE7CF0CC0440F551F61
:100AE000661F771F17FD4160EE0CFF1C001F111FD2
:100AF00021503040403090E0590790E0690790E481
:100B0000790760F32B8F3C8FDB01CA018F779070E0
:100B1000A070B07080349105A105B10561F447FD66
:100B20000AC0E114F1040105110529F0405C5F4F92
:100B30006F4F7F4F40781A8EFE1711F081E08A8F39
:100B40004D8F5E8F6F8F78A383E0898FCE0149969A
:100B50000E943F07A096E2E10C940109A8E1B0E0F1
:100B6000E4EBF5E00C94F10869837A838B839C8332
:100B70002D833E834F83588789E0E82EF12CEC0EBD
:100B8000FD1ECE010196B7010E9414088E010F5E72
:100B90001F4FCE010596B8010E9414088985823046
:100BA00040F08989823028F0C701B8010E948C0882
:100BB00001C08FEF6896E6E00C940D09A8E1B0E063
:100BC000E4EEF5E00C94F10869837A838B839C83CF
:100BD0002D833E834F83588789E0E82EF12CEC0E5D
:100BE000FD1ECE010196B7010E9414088E010F5E12
:100BF0001F4FCE010596B8010E94140889858230E6
:100C000040F08989823028F0C701B8010E948C0821
:100C100001C08FEF6896E6E00C940D09A8E1B0E002
:100C2000E4E1F6E00C94F10869837A838B839C837A
:100C30002D833E834F83588789E0E82EF12CEC0EFC
:100C4000FD1ECE010196B7010E9414088E010F5EB1
:100C50001F4FCE010596B8010E9414088985823085
:100C600040F08989823028F0C701B8010E948C08C1
:100C700001C081E06896E6E00C940D09A8E0B0E0C0
:100C8000E4E4F6E00C94EE089B01AC0183E0898378
:100C9000DA01C9018827B7FD83959927AA27BB27C1
:100CA000B82E211531054105510519F482E08983DB
:100CB0003AC08823A9F0203080E0380780E0480758
:100CC00080E8580729F460E070E080E09FEC30C0D5
:100CD000EE24FF248701E21AF30A040B150B02C06D
:100CE00079018A018EE1C82ED12CDC82CB82ED8283
:100CF000FE820F831887C801B7010E94F006019792
:100D00001816190684F4082E04C0EE0CFF1C001FF0
:100D1000111F0A94D2F7ED82FE820F831887C81A3A
:100D2000D90ADC82CB82BA82CE0101960E943F07AB
:100D30002896E9E00C940A09ACE0B0E0E2EAF6E0BB
:100D40000C94F50869837A838B839C83CE0101968A
:100D5000BE016B5F7F4F0E9414088D81823061F16C
:100D6000823050F1843021F48E81882351F12EC0DD
:100D70002F81388537FD20C06E812F3131051CF061
:100D80006623F9F023C08EE190E0821B930B298546
:100D90003A854B855C8504C05695479537952795D0
:100DA0008A95D2F76623B1F05095409530952195FC
:100DB0003F4F4F4F5F4F0EC020E030E040E050E02B
:100DC00009C02FEF3FEF4FEF5FE704C020E030E0B6
:100DD00040E050E8B901CA012C96E2E00C941109F8
:100DE000EF92FF920F931F937B018C0180E0E81636
:100DF00080E0F80681E0080780E0180788F48FEFAC
:100E0000E816F1040105110531F028F088E090E0C2
:100E1000A0E0B0E017C080E090E0A0E0B0E012C039
:100E200080E0E81680E0F80680E0080781E0180717
:100E300028F088E190E0A0E0B0E004C080E190E01C
:100E4000A0E0B0E020E230E040E050E0281B390BA9
:100E50004A0B5B0B04C016950795F794E7948A95A7
:100E6000D2F7F701EF5BFD4F8081281B3109410963
:100E70005109C9011F910F91FF90EF900895DF92E2
:100E8000EF92FF920F931F93FC01E480F58006819F
:100E90001781D1808081823048F480E090E0A0E129
:100EA000B0E0E82AF92A0A2B1B2BA5C0843009F4EC
:100EB0009FC0823021F4EE24FF24870105C0E11495
:100EC000F1040105110519F4E0E0F0E096C062813B
:100ED00073819FEF623879070CF05BC022E83FEF27
:100EE000261B370B2A3131052CF020E030E040E0A2
:100EF00050E02AC0B801A701022E04C0769567957C
:100F0000579547950A94D2F781E090E0A0E0B0E0D1
:100F100004C0880F991FAA1FBB1F2A95D2F70197FB
:100F2000A109B1098E219F21A023B1230097A1051A
:100F3000B10521F081E090E0A0E0B0E09A01AB01C2
:100F4000282B392B4A2B5B2BDA01C9018F77907044
:100F5000A070B07080349105A105B10539F427FF68
:100F600009C0205C3F4F4F4F5F4F04C0215C3F4F93
:100F70004F4F5F4FE0E0F0E02030A0E03A07A0E004
:100F80004A07A0E45A0710F0E1E0F0E079018A0195
:100F900027C06038710564F5FB01E158FF4FD801A7
:100FA000C7018F779070A070B07080349105A10553
:100FB000B10539F4E7FE0DC080E490E0A0E0B0E0B8
:100FC00004C08FE390E0A0E0B0E0E80EF91E0A1F35
:100FD0001B1F17FF05C016950795F794E7943196E8
:100FE00087E016950795F794E7948A95D1F705C0A1
:100FF000EE24FF248701EFEFF0E06E2F6795662760
:101000006795902F9F77D794DD24D7948E2F869560
:10101000492F462B582F5D29B701CA011F910F9107
:10102000FF90EF90DF900895FC01DB01408151813A
:101030002281622F6F7770E0221F2227221F938167
:10104000892F880F822B282F30E0991F9927991F0D
:1010500011969C93119721153105A9F5411551055C
:101060006105710511F482E037C082E89FEF1396A5
:101070009C938E9312979A01AB0167E0220F331F66
:10108000441F551F6A95D1F783E08C930DC0220F42
:10109000331F441F551F12968D919C9113970197F2
:1010A00013969C938E931297203080E0380780E04F
:1010B000480780E4580758F314962D933D934D93B9
:1010C0005C93179708952F3F310579F44115510529
:1010D0006105710519F484E08C93089564FF03C0E1
:1010E00081E08C9312C01C9210C02F573040139691
:1010F0003C932E93129783E08C9387E0440F551F07
:10110000661F771F8A95D1F7706414964D935D938F
:101110006D937C93179708951F93DC01FB019C91BD
:10112000923008F447C08081823008F443C0943084
:1011300051F411961C91843099F58181682F70E0EB
:10114000611B71093FC0843021F0923031F482304C
:10115000B9F18181882389F12DC011961C911197D5
:101160008230F1F081811817D9F412962D913C91BB
:101170001397828193818217930794F02817390778
:10118000BCF014968D919D910D90BC91A02D248161
:10119000358146815781281739074A075B0718F4BC
:1011A000112341F00AC082179307A407B50740F442
:1011B000112319F061E070E005C06FEF7FEF02C00E
:1011C00060E070E0CB011F9108952F923F924F9203
:1011D0005F926F927F928F929F92AF92BF92CF92C7
:1011E000DF92EF92FF920F931F93CF93DF93CDB7D0
:1011F000DEB7CA1BDB0B0FB6F894DEBF0FBECDBF48
:1012000019942A88398848885F846E847D848C8408
:101210009B84AA84B984C884DF80EE80FD800C8121
:101220001B81AA81B981CE0FD11D0FB6F894DEBF04
:0C1230000FBECDBFED010895F894FFCF74
:10123C006400FA006400FA006400F401FA00FA0099
:10124C00FA00FA00FA00F4016400FA006400FA00F3
:10125C006400FA00FA000100010001000F000F0009
:10126C000F00010001000100000000000000000060
:10127C000000010202030303030404040404040435
:10128C000405050505050505050505050505050503
:10129C0005060606060606060606060606060606E3
:1012AC0006060606060606060606060606060606D2
:1012BC0006070707070707070707070707070707B3
:1012CC0007070707070707070707070707070707A2
:1012DC000707070707070707070707070707070792
:1012EC000707070707070707070707070707070782
:1012FC000708080808080808080808080808080863
:10130C000808080808080808080808080808080851
:10131C000808080808080808080808080808080841
:10132C000808080808080808080808080808080831
:10133C000808080808080808080808080808080821
:10134C000808080808080808080808080808080811
:10135C000808080808080808080808080808080801
:10136C0008080808080808080808080808080808F1
:02137C00080067
:00000001FF
